{
  "_format": "hh-sol-artifact-1",
  "contractName": "NftMarketPlace",
  "sourceName": "contracts/NftMarketPlace.sol",
  "abi": [
    {
      "inputs": [],
      "stateMutability": "nonpayable",
      "type": "constructor"
    },
    {
      "inputs": [
        {
          "internalType": "address",
          "name": "sender",
          "type": "address"
        },
        {
          "internalType": "uint256",
          "name": "tokenId",
          "type": "uint256"
        },
        {
          "internalType": "address",
          "name": "owner",
          "type": "address"
        }
      ],
      "name": "ERC721IncorrectOwner",
      "type": "error"
    },
    {
      "inputs": [
        {
          "internalType": "address",
          "name": "operator",
          "type": "address"
        },
        {
          "internalType": "uint256",
          "name": "tokenId",
          "type": "uint256"
        }
      ],
      "name": "ERC721InsufficientApproval",
      "type": "error"
    },
    {
      "inputs": [
        {
          "internalType": "address",
          "name": "approver",
          "type": "address"
        }
      ],
      "name": "ERC721InvalidApprover",
      "type": "error"
    },
    {
      "inputs": [
        {
          "internalType": "address",
          "name": "operator",
          "type": "address"
        }
      ],
      "name": "ERC721InvalidOperator",
      "type": "error"
    },
    {
      "inputs": [
        {
          "internalType": "address",
          "name": "owner",
          "type": "address"
        }
      ],
      "name": "ERC721InvalidOwner",
      "type": "error"
    },
    {
      "inputs": [
        {
          "internalType": "address",
          "name": "receiver",
          "type": "address"
        }
      ],
      "name": "ERC721InvalidReceiver",
      "type": "error"
    },
    {
      "inputs": [
        {
          "internalType": "address",
          "name": "sender",
          "type": "address"
        }
      ],
      "name": "ERC721InvalidSender",
      "type": "error"
    },
    {
      "inputs": [
        {
          "internalType": "uint256",
          "name": "tokenId",
          "type": "uint256"
        }
      ],
      "name": "ERC721NonexistentToken",
      "type": "error"
    },
    {
      "anonymous": false,
      "inputs": [
        {
          "indexed": true,
          "internalType": "address",
          "name": "owner",
          "type": "address"
        },
        {
          "indexed": true,
          "internalType": "address",
          "name": "approved",
          "type": "address"
        },
        {
          "indexed": true,
          "internalType": "uint256",
          "name": "tokenId",
          "type": "uint256"
        }
      ],
      "name": "Approval",
      "type": "event"
    },
    {
      "anonymous": false,
      "inputs": [
        {
          "indexed": true,
          "internalType": "address",
          "name": "owner",
          "type": "address"
        },
        {
          "indexed": true,
          "internalType": "address",
          "name": "operator",
          "type": "address"
        },
        {
          "indexed": false,
          "internalType": "bool",
          "name": "approved",
          "type": "bool"
        }
      ],
      "name": "ApprovalForAll",
      "type": "event"
    },
    {
      "anonymous": false,
      "inputs": [
        {
          "indexed": false,
          "internalType": "uint256",
          "name": "_fromTokenId",
          "type": "uint256"
        },
        {
          "indexed": false,
          "internalType": "uint256",
          "name": "_toTokenId",
          "type": "uint256"
        }
      ],
      "name": "BatchMetadataUpdate",
      "type": "event"
    },
    {
      "anonymous": false,
      "inputs": [
        {
          "indexed": true,
          "internalType": "uint256",
          "name": "tokenId",
          "type": "uint256"
        },
        {
          "indexed": false,
          "internalType": "address",
          "name": "buyer",
          "type": "address"
        },
        {
          "indexed": false,
          "internalType": "uint256",
          "name": "price",
          "type": "uint256"
        }
      ],
      "name": "MarketSaleCompleted",
      "type": "event"
    },
    {
      "anonymous": false,
      "inputs": [
        {
          "indexed": false,
          "internalType": "uint256",
          "name": "_tokenId",
          "type": "uint256"
        }
      ],
      "name": "MetadataUpdate",
      "type": "event"
    },
    {
      "anonymous": false,
      "inputs": [
        {
          "indexed": true,
          "internalType": "uint256",
          "name": "tokenId",
          "type": "uint256"
        },
        {
          "indexed": false,
          "internalType": "address",
          "name": "seller",
          "type": "address"
        },
        {
          "indexed": false,
          "internalType": "uint256",
          "name": "price",
          "type": "uint256"
        }
      ],
      "name": "TokenResell",
      "type": "event"
    },
    {
      "anonymous": false,
      "inputs": [
        {
          "indexed": true,
          "internalType": "address",
          "name": "from",
          "type": "address"
        },
        {
          "indexed": true,
          "internalType": "address",
          "name": "to",
          "type": "address"
        },
        {
          "indexed": true,
          "internalType": "uint256",
          "name": "tokenId",
          "type": "uint256"
        }
      ],
      "name": "Transfer",
      "type": "event"
    },
    {
      "anonymous": false,
      "inputs": [
        {
          "indexed": true,
          "internalType": "uint256",
          "name": "tokenId",
          "type": "uint256"
        },
        {
          "indexed": false,
          "internalType": "address",
          "name": "seller",
          "type": "address"
        },
        {
          "indexed": false,
          "internalType": "address",
          "name": "owner",
          "type": "address"
        },
        {
          "indexed": false,
          "internalType": "uint256",
          "name": "price",
          "type": "uint256"
        },
        {
          "indexed": false,
          "internalType": "bool",
          "name": "sold",
          "type": "bool"
        }
      ],
      "name": "idMarketItemCreated",
      "type": "event"
    },
    {
      "inputs": [
        {
          "internalType": "address",
          "name": "to",
          "type": "address"
        },
        {
          "internalType": "uint256",
          "name": "tokenId",
          "type": "uint256"
        }
      ],
      "name": "approve",
      "outputs": [],
      "stateMutability": "nonpayable",
      "type": "function"
    },
    {
      "inputs": [
        {
          "internalType": "address",
          "name": "owner",
          "type": "address"
        }
      ],
      "name": "balanceOf",
      "outputs": [
        {
          "internalType": "uint256",
          "name": "",
          "type": "uint256"
        }
      ],
      "stateMutability": "view",
      "type": "function"
    },
    {
      "inputs": [
        {
          "internalType": "uint256",
          "name": "tokenId",
          "type": "uint256"
        }
      ],
      "name": "createMarketSale",
      "outputs": [],
      "stateMutability": "payable",
      "type": "function"
    },
    {
      "inputs": [
        {
          "internalType": "string",
          "name": "tokenURI",
          "type": "string"
        },
        {
          "internalType": "uint256",
          "name": "price",
          "type": "uint256"
        }
      ],
      "name": "createToken",
      "outputs": [
        {
          "internalType": "uint256",
          "name": "",
          "type": "uint256"
        }
      ],
      "stateMutability": "payable",
      "type": "function"
    },
    {
      "inputs": [],
      "name": "fetchItemsListed",
      "outputs": [
        {
          "components": [
            {
              "internalType": "uint256",
              "name": "tokenId",
              "type": "uint256"
            },
            {
              "internalType": "address payable",
              "name": "seller",
              "type": "address"
            },
            {
              "internalType": "address payable",
              "name": "owner",
              "type": "address"
            },
            {
              "internalType": "uint256",
              "name": "price",
              "type": "uint256"
            },
            {
              "internalType": "bool",
              "name": "sold",
              "type": "bool"
            }
          ],
          "internalType": "struct NftMarketPlace.MarketItem[]",
          "name": "",
          "type": "tuple[]"
        }
      ],
      "stateMutability": "view",
      "type": "function"
    },
    {
      "inputs": [],
      "name": "fetchMarketItem",
      "outputs": [
        {
          "components": [
            {
              "internalType": "uint256",
              "name": "tokenId",
              "type": "uint256"
            },
            {
              "internalType": "address payable",
              "name": "seller",
              "type": "address"
            },
            {
              "internalType": "address payable",
              "name": "owner",
              "type": "address"
            },
            {
              "internalType": "uint256",
              "name": "price",
              "type": "uint256"
            },
            {
              "internalType": "bool",
              "name": "sold",
              "type": "bool"
            }
          ],
          "internalType": "struct NftMarketPlace.MarketItem[]",
          "name": "",
          "type": "tuple[]"
        }
      ],
      "stateMutability": "view",
      "type": "function"
    },
    {
      "inputs": [],
      "name": "fetchMyNFT",
      "outputs": [
        {
          "components": [
            {
              "internalType": "uint256",
              "name": "tokenId",
              "type": "uint256"
            },
            {
              "internalType": "address payable",
              "name": "seller",
              "type": "address"
            },
            {
              "internalType": "address payable",
              "name": "owner",
              "type": "address"
            },
            {
              "internalType": "uint256",
              "name": "price",
              "type": "uint256"
            },
            {
              "internalType": "bool",
              "name": "sold",
              "type": "bool"
            }
          ],
          "internalType": "struct NftMarketPlace.MarketItem[]",
          "name": "",
          "type": "tuple[]"
        }
      ],
      "stateMutability": "view",
      "type": "function"
    },
    {
      "inputs": [],
      "name": "fetchcount",
      "outputs": [
        {
          "internalType": "uint256",
          "name": "",
          "type": "uint256"
        }
      ],
      "stateMutability": "view",
      "type": "function"
    },
    {
      "inputs": [
        {
          "internalType": "uint256",
          "name": "tokenId",
          "type": "uint256"
        }
      ],
      "name": "getApproved",
      "outputs": [
        {
          "internalType": "address",
          "name": "",
          "type": "address"
        }
      ],
      "stateMutability": "view",
      "type": "function"
    },
    {
      "inputs": [],
      "name": "getListingPrice",
      "outputs": [
        {
          "internalType": "uint256",
          "name": "",
          "type": "uint256"
        }
      ],
      "stateMutability": "view",
      "type": "function"
    },
    {
      "inputs": [
        {
          "internalType": "address",
          "name": "owner",
          "type": "address"
        },
        {
          "internalType": "address",
          "name": "operator",
          "type": "address"
        }
      ],
      "name": "isApprovedForAll",
      "outputs": [
        {
          "internalType": "bool",
          "name": "",
          "type": "bool"
        }
      ],
      "stateMutability": "view",
      "type": "function"
    },
    {
      "inputs": [],
      "name": "name",
      "outputs": [
        {
          "internalType": "string",
          "name": "",
          "type": "string"
        }
      ],
      "stateMutability": "view",
      "type": "function"
    },
    {
      "inputs": [
        {
          "internalType": "uint256",
          "name": "tokenId",
          "type": "uint256"
        }
      ],
      "name": "ownerOf",
      "outputs": [
        {
          "internalType": "address",
          "name": "",
          "type": "address"
        }
      ],
      "stateMutability": "view",
      "type": "function"
    },
    {
      "inputs": [
        {
          "internalType": "uint256",
          "name": "tokenId",
          "type": "uint256"
        },
        {
          "internalType": "uint256",
          "name": "price",
          "type": "uint256"
        }
      ],
      "name": "resellToken",
      "outputs": [],
      "stateMutability": "payable",
      "type": "function"
    },
    {
      "inputs": [
        {
          "internalType": "address",
          "name": "from",
          "type": "address"
        },
        {
          "internalType": "address",
          "name": "to",
          "type": "address"
        },
        {
          "internalType": "uint256",
          "name": "tokenId",
          "type": "uint256"
        }
      ],
      "name": "safeTransferFrom",
      "outputs": [],
      "stateMutability": "nonpayable",
      "type": "function"
    },
    {
      "inputs": [
        {
          "internalType": "address",
          "name": "from",
          "type": "address"
        },
        {
          "internalType": "address",
          "name": "to",
          "type": "address"
        },
        {
          "internalType": "uint256",
          "name": "tokenId",
          "type": "uint256"
        },
        {
          "internalType": "bytes",
          "name": "data",
          "type": "bytes"
        }
      ],
      "name": "safeTransferFrom",
      "outputs": [],
      "stateMutability": "nonpayable",
      "type": "function"
    },
    {
      "inputs": [
        {
          "internalType": "address",
          "name": "operator",
          "type": "address"
        },
        {
          "internalType": "bool",
          "name": "approved",
          "type": "bool"
        }
      ],
      "name": "setApprovalForAll",
      "outputs": [],
      "stateMutability": "nonpayable",
      "type": "function"
    },
    {
      "inputs": [
        {
          "internalType": "bytes4",
          "name": "interfaceId",
          "type": "bytes4"
        }
      ],
      "name": "supportsInterface",
      "outputs": [
        {
          "internalType": "bool",
          "name": "",
          "type": "bool"
        }
      ],
      "stateMutability": "view",
      "type": "function"
    },
    {
      "inputs": [],
      "name": "symbol",
      "outputs": [
        {
          "internalType": "string",
          "name": "",
          "type": "string"
        }
      ],
      "stateMutability": "view",
      "type": "function"
    },
    {
      "inputs": [
        {
          "internalType": "uint256",
          "name": "tokenId",
          "type": "uint256"
        }
      ],
      "name": "tokenURI",
      "outputs": [
        {
          "internalType": "string",
          "name": "",
          "type": "string"
        }
      ],
      "stateMutability": "view",
      "type": "function"
    },
    {
      "inputs": [
        {
          "internalType": "address",
          "name": "from",
          "type": "address"
        },
        {
          "internalType": "address",
          "name": "to",
          "type": "address"
        },
        {
          "internalType": "uint256",
          "name": "tokenId",
          "type": "uint256"
        }
      ],
      "name": "transferFrom",
      "outputs": [],
      "stateMutability": "nonpayable",
      "type": "function"
    },
    {
      "inputs": [
        {
          "internalType": "uint256",
          "name": "_listingPrice",
          "type": "uint256"
        }
      ],
      "name": "updateListingPrice",
      "outputs": [],
      "stateMutability": "payable",
      "type": "function"
    }
  ],
  "bytecode": "0x6080604052621e84806009553480156200001857600080fd5b506040518060400160405280601081526020017f4e46542043524f574446554e44494e47000000000000000000000000000000008152506040518060400160405280600881526020017f4346554e444e465400000000000000000000000000000000000000000000000081525081600090816200009691906200036c565b508060019081620000a891906200036c565b50505033600a60006101000a81548173ffffffffffffffffffffffffffffffffffffffff021916908373ffffffffffffffffffffffffffffffffffffffff16021790555062000453565b600081519050919050565b7f4e487b7100000000000000000000000000000000000000000000000000000000600052604160045260246000fd5b7f4e487b7100000000000000000000000000000000000000000000000000000000600052602260045260246000fd5b600060028204905060018216806200017457607f821691505b6020821081036200018a57620001896200012c565b5b50919050565b60008190508160005260206000209050919050565b60006020601f8301049050919050565b600082821b905092915050565b600060088302620001f47fffffffffffffffffffffffffffffffffffffffffffffffffffffffffffffffff82620001b5565b620002008683620001b5565b95508019841693508086168417925050509392505050565b6000819050919050565b6000819050919050565b60006200024d62000247620002418462000218565b62000222565b62000218565b9050919050565b6000819050919050565b62000269836200022c565b62000281620002788262000254565b848454620001c2565b825550505050565b600090565b6200029862000289565b620002a58184846200025e565b505050565b5b81811015620002cd57620002c16000826200028e565b600181019050620002ab565b5050565b601f8211156200031c57620002e68162000190565b620002f184620001a5565b8101602085101562000301578190505b620003196200031085620001a5565b830182620002aa565b50505b505050565b600082821c905092915050565b6000620003416000198460080262000321565b1980831691505092915050565b60006200035c83836200032e565b9150826002028217905092915050565b6200037782620000f2565b67ffffffffffffffff811115620003935762000392620000fd565b5b6200039f82546200015b565b620003ac828285620002d1565b600060209050601f831160018114620003e45760008415620003cf578287015190505b620003db85826200034e565b8655506200044b565b601f198416620003f48662000190565b60005b828110156200041e57848901518255600182019150602085019450602081019050620003f7565b868310156200043e57848901516200043a601f8916826200032e565b8355505b6001600288020188555050505b505050505050565b613ce280620004636000396000f3fe6080604052600436106101355760003560e01c80638fafd021116100ab578063bbcde2f51161006f578063bbcde2f51461041e578063be9af53614610449578063c18763f714610465578063c87b56dd14610490578063e219fc75146104cd578063e985e9c5146104e957610135565b80638fafd0211461035a57806395d89b4114610385578063a22cb465146103b0578063ae677aa3146103d9578063b88d4fde146103f557610135565b806323b872dd116100fd57806323b872dd1461023357806342842e0e1461025c57806345f8fa80146102855780636352211e146102b057806370a08231146102ed57806372b3b6201461032a57610135565b806301ffc9a71461013a57806306fdde0314610177578063081812fc146101a2578063095ea7b3146101df57806312e8558514610208575b600080fd5b34801561014657600080fd5b50610161600480360381019061015c9190612b88565b610526565b60405161016e9190612bd0565b60405180910390f35b34801561018357600080fd5b5061018c610587565b6040516101999190612c7b565b60405180910390f35b3480156101ae57600080fd5b506101c960048036038101906101c49190612cd3565b610619565b6040516101d69190612d41565b60405180910390f35b3480156101eb57600080fd5b5061020660048036038101906102019190612d88565b610635565b005b34801561021457600080fd5b5061021d61064b565b60405161022a9190612dd7565b60405180910390f35b34801561023f57600080fd5b5061025a60048036038101906102559190612df2565b610655565b005b34801561026857600080fd5b50610283600480360381019061027e9190612df2565b610757565b005b34801561029157600080fd5b5061029a610777565b6040516102a79190612f9b565b60405180910390f35b3480156102bc57600080fd5b506102d760048036038101906102d29190612cd3565b610a57565b6040516102e49190612d41565b60405180910390f35b3480156102f957600080fd5b50610314600480360381019061030f9190612fbd565b610a69565b6040516103219190612dd7565b60405180910390f35b610344600480360381019061033f919061311f565b610b23565b6040516103519190612dd7565b60405180910390f35b34801561036657600080fd5b5061036f610b65565b60405161037c9190612f9b565b60405180910390f35b34801561039157600080fd5b5061039a610dc7565b6040516103a79190612c7b565b60405180910390f35b3480156103bc57600080fd5b506103d760048036038101906103d291906131a7565b610e59565b005b6103f360048036038101906103ee9190612cd3565b610e6f565b005b34801561040157600080fd5b5061041c60048036038101906104179190613288565b610f09565b005b34801561042a57600080fd5b50610433610f26565b6040516104409190612dd7565b60405180910390f35b610463600480360381019061045e9190612cd3565b610f3c565b005b34801561047157600080fd5b5061047a611158565b6040516104879190612f9b565b60405180910390f35b34801561049c57600080fd5b506104b760048036038101906104b29190612cd3565b611438565b6040516104c49190612c7b565b60405180910390f35b6104e760048036038101906104e2919061330b565b61154b565b005b3480156104f557600080fd5b50610510600480360381019061050b919061334b565b611740565b60405161051d9190612bd0565b60405180910390f35b6000634906490660e01b7bffffffffffffffffffffffffffffffffffffffffffffffffffffffff1916827bffffffffffffffffffffffffffffffffffffffffffffffffffffffff19161480610580575061057f826117d4565b5b9050919050565b606060008054610596906133ba565b80601f01602080910402602001604051908101604052809291908181526020018280546105c2906133ba565b801561060f5780601f106105e45761010080835404028352916020019161060f565b820191906000526020600020905b8154815290600101906020018083116105f257829003601f168201915b5050505050905090565b6000610624826118b6565b5061062e8261193e565b9050919050565b610647828261064261197b565b611983565b5050565b6000600954905090565b600073ffffffffffffffffffffffffffffffffffffffff168273ffffffffffffffffffffffffffffffffffffffff16036106c75760006040517f64a0ae920000000000000000000000000000000000000000000000000000000081526004016106be9190612d41565b60405180910390fd5b60006106db83836106d661197b565b611995565b90508373ffffffffffffffffffffffffffffffffffffffff168173ffffffffffffffffffffffffffffffffffffffff1614610751578382826040517f64283d7b000000000000000000000000000000000000000000000000000000008152600401610748939291906133eb565b60405180910390fd5b50505050565b61077283838360405180602001604052806000815250610f09565b505050565b606060006107856007611baf565b905060008060005b83811015610827573373ffffffffffffffffffffffffffffffffffffffff16600b60006001846107bd9190613451565b815260200190815260200160002060010160009054906101000a900473ffffffffffffffffffffffffffffffffffffffff1673ffffffffffffffffffffffffffffffffffffffff160361081a576001836108179190613451565b92505b808060010191505061078d565b5060008267ffffffffffffffff81111561084457610843612ff4565b5b60405190808252806020026020018201604052801561087d57816020015b61086a612abf565b8152602001906001900390816108625790505b50905060005b84811015610a4c573373ffffffffffffffffffffffffffffffffffffffff16600b60006001846108b39190613451565b815260200190815260200160002060010160009054906101000a900473ffffffffffffffffffffffffffffffffffffffff1673ffffffffffffffffffffffffffffffffffffffff1603610a3f57600060018261090f9190613451565b90506000600b60008381526020019081526020016000209050806040518060a0016040529081600082015481526020016001820160009054906101000a900473ffffffffffffffffffffffffffffffffffffffff1673ffffffffffffffffffffffffffffffffffffffff1673ffffffffffffffffffffffffffffffffffffffff1681526020016002820160009054906101000a900473ffffffffffffffffffffffffffffffffffffffff1673ffffffffffffffffffffffffffffffffffffffff1673ffffffffffffffffffffffffffffffffffffffff168152602001600382015481526020016004820160009054906101000a900460ff161515151581525050848681518110610a2257610a21613485565b5b6020026020010181905250600185610a3a9190613451565b945050505b8080600101915050610883565b508094505050505090565b6000610a62826118b6565b9050919050565b60008073ffffffffffffffffffffffffffffffffffffffff168273ffffffffffffffffffffffffffffffffffffffff1603610adc5760006040517f89c62b64000000000000000000000000000000000000000000000000000000008152600401610ad39190612d41565b60405180910390fd5b600360008373ffffffffffffffffffffffffffffffffffffffff1673ffffffffffffffffffffffffffffffffffffffff168152602001908152602001600020549050919050565b6000610b2f6007611bbd565b6000610b3b6007611baf565b9050610b473382611bdc565b610b518185611cd5565b610b5b8184611d31565b8091505092915050565b60606000610b736007611baf565b90506000610b816008611baf565b610b8b6007611baf565b610b9591906134b4565b90506000808267ffffffffffffffff811115610bb457610bb3612ff4565b5b604051908082528060200260200182016040528015610bed57816020015b610bda612abf565b815260200190600190039081610bd25790505b50905060005b84811015610dbc573073ffffffffffffffffffffffffffffffffffffffff16600b6000600184610c239190613451565b815260200190815260200160002060020160009054906101000a900473ffffffffffffffffffffffffffffffffffffffff1673ffffffffffffffffffffffffffffffffffffffff1603610daf576000600182610c7f9190613451565b90506000600b60008381526020019081526020016000209050806040518060a0016040529081600082015481526020016001820160009054906101000a900473ffffffffffffffffffffffffffffffffffffffff1673ffffffffffffffffffffffffffffffffffffffff1673ffffffffffffffffffffffffffffffffffffffff1681526020016002820160009054906101000a900473ffffffffffffffffffffffffffffffffffffffff1673ffffffffffffffffffffffffffffffffffffffff1673ffffffffffffffffffffffffffffffffffffffff168152602001600382015481526020016004820160009054906101000a900460ff161515151581525050848681518110610d9257610d91613485565b5b6020026020010181905250600185610daa9190613451565b945050505b8080600101915050610bf3565b508094505050505090565b606060018054610dd6906133ba565b80601f0160208091040260200160405190810160405280929190818152602001828054610e02906133ba565b8015610e4f5780601f10610e2457610100808354040283529160200191610e4f565b820191906000526020600020905b815481529060010190602001808311610e3257829003601f168201915b5050505050905090565b610e6b610e6461197b565b8383611f34565b5050565b600a60009054906101000a900473ffffffffffffffffffffffffffffffffffffffff1673ffffffffffffffffffffffffffffffffffffffff163373ffffffffffffffffffffffffffffffffffffffff1614610eff576040517f08c379a0000000000000000000000000000000000000000000000000000000008152600401610ef690613534565b60405180910390fd5b8060098190555050565b610f14848484610655565b610f20848484846120a3565b50505050565b600080610f336007611baf565b90508091505090565b6000600b6000838152602001908152602001600020600301549050803414610f99576040517f08c379a0000000000000000000000000000000000000000000000000000000008152600401610f90906135c6565b60405180910390fd5b33600b600084815260200190815260200160002060020160006101000a81548173ffffffffffffffffffffffffffffffffffffffff021916908373ffffffffffffffffffffffffffffffffffffffff1602179055506001600b600084815260200190815260200160002060040160006101000a81548160ff0219169083151502179055506110276008611bbd565b61103230338461225a565b600a60009054906101000a900473ffffffffffffffffffffffffffffffffffffffff1673ffffffffffffffffffffffffffffffffffffffff166108fc6009549081150290604051600060405180830381858888f1935050505015801561109c573d6000803e3d6000fd5b50600b600083815260200190815260200160002060010160009054906101000a900473ffffffffffffffffffffffffffffffffffffffff1673ffffffffffffffffffffffffffffffffffffffff166108fc349081150290604051600060405180830381858888f19350505050158015611119573d6000803e3d6000fd5b50817fac26d385aed764fd5371308ad48c0b96a29edaaef028bbceb5a08da7666f962f338360405161114c9291906135e6565b60405180910390a25050565b606060006111666007611baf565b905060008060005b83811015611208573373ffffffffffffffffffffffffffffffffffffffff16600b600060018461119e9190613451565b815260200190815260200160002060020160009054906101000a900473ffffffffffffffffffffffffffffffffffffffff1673ffffffffffffffffffffffffffffffffffffffff16036111fb576001836111f89190613451565b92505b808060010191505061116e565b5060008267ffffffffffffffff81111561122557611224612ff4565b5b60405190808252806020026020018201604052801561125e57816020015b61124b612abf565b8152602001906001900390816112435790505b50905060005b8481101561142d573373ffffffffffffffffffffffffffffffffffffffff16600b60006001846112949190613451565b815260200190815260200160002060020160009054906101000a900473ffffffffffffffffffffffffffffffffffffffff1673ffffffffffffffffffffffffffffffffffffffff16036114205760006001826112f09190613451565b90506000600b60008381526020019081526020016000209050806040518060a0016040529081600082015481526020016001820160009054906101000a900473ffffffffffffffffffffffffffffffffffffffff1673ffffffffffffffffffffffffffffffffffffffff1673ffffffffffffffffffffffffffffffffffffffff1681526020016002820160009054906101000a900473ffffffffffffffffffffffffffffffffffffffff1673ffffffffffffffffffffffffffffffffffffffff1673ffffffffffffffffffffffffffffffffffffffff168152602001600382015481526020016004820160009054906101000a900460ff16151515158152505084868151811061140357611402613485565b5b602002602001018190525060018561141b9190613451565b945050505b8080600101915050611264565b508094505050505090565b6060611443826118b6565b506000600660008481526020019081526020016000208054611464906133ba565b80601f0160208091040260200160405190810160405280929190818152602001828054611490906133ba565b80156114dd5780601f106114b2576101008083540402835291602001916114dd565b820191906000526020600020905b8154815290600101906020018083116114c057829003601f168201915b5050505050905060006114ee6123c7565b90506000815103611503578192505050611546565b60008251111561153857808260405160200161152092919061364b565b60405160208183030381529060405292505050611546565b611541846123de565b925050505b919050565b3373ffffffffffffffffffffffffffffffffffffffff16600b600084815260200190815260200160002060020160009054906101000a900473ffffffffffffffffffffffffffffffffffffffff1673ffffffffffffffffffffffffffffffffffffffff16146115ef576040517f08c379a00000000000000000000000000000000000000000000000000000000081526004016115e6906136e1565b60405180910390fd5b6009543410611633576040517f08c379a000000000000000000000000000000000000000000000000000000000815260040161162a9061374d565b60405180910390fd5b6000600b600084815260200190815260200160002060040160006101000a81548160ff02191690831515021790555080600b60008481526020019081526020016000206003018190555033600b600084815260200190815260200160002060010160006101000a81548173ffffffffffffffffffffffffffffffffffffffff021916908373ffffffffffffffffffffffffffffffffffffffff16021790555030600b600084815260200190815260200160002060020160006101000a81548173ffffffffffffffffffffffffffffffffffffffff021916908373ffffffffffffffffffffffffffffffffffffffff1602179055506117316008612447565b61173c33308461225a565b5050565b6000600560008473ffffffffffffffffffffffffffffffffffffffff1673ffffffffffffffffffffffffffffffffffffffff16815260200190815260200160002060008373ffffffffffffffffffffffffffffffffffffffff1673ffffffffffffffffffffffffffffffffffffffff16815260200190815260200160002060009054906101000a900460ff16905092915050565b60007f80ac58cd000000000000000000000000000000000000000000000000000000007bffffffffffffffffffffffffffffffffffffffffffffffffffffffff1916827bffffffffffffffffffffffffffffffffffffffffffffffffffffffff1916148061189f57507f5b5e139f000000000000000000000000000000000000000000000000000000007bffffffffffffffffffffffffffffffffffffffffffffffffffffffff1916827bffffffffffffffffffffffffffffffffffffffffffffffffffffffff1916145b806118af57506118ae826124ad565b5b9050919050565b6000806118c283612517565b9050600073ffffffffffffffffffffffffffffffffffffffff168173ffffffffffffffffffffffffffffffffffffffff160361193557826040517f7e27328900000000000000000000000000000000000000000000000000000000815260040161192c9190612dd7565b60405180910390fd5b80915050919050565b60006004600083815260200190815260200160002060009054906101000a900473ffffffffffffffffffffffffffffffffffffffff169050919050565b600033905090565b6119908383836001612554565b505050565b6000806119a184612517565b9050600073ffffffffffffffffffffffffffffffffffffffff168373ffffffffffffffffffffffffffffffffffffffff16146119e3576119e2818486612719565b5b600073ffffffffffffffffffffffffffffffffffffffff168173ffffffffffffffffffffffffffffffffffffffff1614611a7457611a25600085600080612554565b6001600360008373ffffffffffffffffffffffffffffffffffffffff1673ffffffffffffffffffffffffffffffffffffffff168152602001908152602001600020600082825403925050819055505b600073ffffffffffffffffffffffffffffffffffffffff168573ffffffffffffffffffffffffffffffffffffffff1614611af7576001600360008773ffffffffffffffffffffffffffffffffffffffff1673ffffffffffffffffffffffffffffffffffffffff168152602001908152602001600020600082825401925050819055505b846002600086815260200190815260200160002060006101000a81548173ffffffffffffffffffffffffffffffffffffffff021916908373ffffffffffffffffffffffffffffffffffffffff160217905550838573ffffffffffffffffffffffffffffffffffffffff168273ffffffffffffffffffffffffffffffffffffffff167fddf252ad1be2c89b69c2b068fc378daa952ba7f163c4a11628f55a4df523b3ef60405160405180910390a4809150509392505050565b600081600001549050919050565b6001816000016000828254611bd29190613451565b9250508190555050565b600073ffffffffffffffffffffffffffffffffffffffff168273ffffffffffffffffffffffffffffffffffffffff1603611c4e5760006040517f64a0ae92000000000000000000000000000000000000000000000000000000008152600401611c459190612d41565b60405180910390fd5b6000611c5c83836000611995565b9050600073ffffffffffffffffffffffffffffffffffffffff168173ffffffffffffffffffffffffffffffffffffffff1614611cd05760006040517f73c6ac6e000000000000000000000000000000000000000000000000000000008152600401611cc79190612d41565b60405180910390fd5b505050565b80600660008481526020019081526020016000209081611cf59190613919565b507ff8e1a15aba9398e019f0b49df1a4fde98ee17ae345cb5f6b5e2c27f5033e8ce782604051611d259190612dd7565b60405180910390a15050565b60008111611d74576040517f08c379a0000000000000000000000000000000000000000000000000000000008152600401611d6b90613a37565b60405180910390fd5b6009543410611db8576040517f08c379a0000000000000000000000000000000000000000000000000000000008152600401611daf90613ac9565b60405180910390fd5b6040518060a001604052808381526020013373ffffffffffffffffffffffffffffffffffffffff1681526020013073ffffffffffffffffffffffffffffffffffffffff16815260200182815260200160001515815250600b60008481526020019081526020016000206000820151816000015560208201518160010160006101000a81548173ffffffffffffffffffffffffffffffffffffffff021916908373ffffffffffffffffffffffffffffffffffffffff16021790555060408201518160020160006101000a81548173ffffffffffffffffffffffffffffffffffffffff021916908373ffffffffffffffffffffffffffffffffffffffff1602179055506060820151816003015560808201518160040160006101000a81548160ff021916908315150217905550905050611ef133308461225a565b817fdebdb32cb5230ab727c9c361b16fdb2015df225c10e6a3e7f60ecd5dc5be45163330846000604051611f289493929190613ae9565b60405180910390a25050565b600073ffffffffffffffffffffffffffffffffffffffff168273ffffffffffffffffffffffffffffffffffffffff1603611fa557816040517f5b08ba18000000000000000000000000000000000000000000000000000000008152600401611f9c9190612d41565b60405180910390fd5b80600560008573ffffffffffffffffffffffffffffffffffffffff1673ffffffffffffffffffffffffffffffffffffffff16815260200190815260200160002060008473ffffffffffffffffffffffffffffffffffffffff1673ffffffffffffffffffffffffffffffffffffffff16815260200190815260200160002060006101000a81548160ff0219169083151502179055508173ffffffffffffffffffffffffffffffffffffffff168373ffffffffffffffffffffffffffffffffffffffff167f17307eab39ab6107e8899845ad3d59bd9653f200f220920489ca2b5937696c31836040516120969190612bd0565b60405180910390a3505050565b60008373ffffffffffffffffffffffffffffffffffffffff163b1115612254578273ffffffffffffffffffffffffffffffffffffffff1663150b7a026120e761197b565b8685856040518563ffffffff1660e01b81526004016121099493929190613b83565b6020604051808303816000875af192505050801561214557506040513d601f19601f820116820180604052508101906121429190613be4565b60015b6121c9573d8060008114612175576040519150601f19603f3d011682016040523d82523d6000602084013e61217a565b606091505b5060008151036121c157836040517f64a0ae920000000000000000000000000000000000000000000000000000000081526004016121b89190612d41565b60405180910390fd5b805181602001fd5b63150b7a0260e01b7bffffffffffffffffffffffffffffffffffffffffffffffffffffffff1916817bffffffffffffffffffffffffffffffffffffffffffffffffffffffff19161461225257836040517f64a0ae920000000000000000000000000000000000000000000000000000000081526004016122499190612d41565b60405180910390fd5b505b50505050565b600073ffffffffffffffffffffffffffffffffffffffff168273ffffffffffffffffffffffffffffffffffffffff16036122cc5760006040517f64a0ae920000000000000000000000000000000000000000000000000000000081526004016122c39190612d41565b60405180910390fd5b60006122da83836000611995565b9050600073ffffffffffffffffffffffffffffffffffffffff168173ffffffffffffffffffffffffffffffffffffffff160361234d57816040517f7e2732890000000000000000000000000000000000000000000000000000000081526004016123449190612dd7565b60405180910390fd5b8373ffffffffffffffffffffffffffffffffffffffff168173ffffffffffffffffffffffffffffffffffffffff16146123c1578382826040517f64283d7b0000000000000000000000000000000000000000000000000000000081526004016123b8939291906133eb565b60405180910390fd5b50505050565b606060405180602001604052806000815250905090565b60606123e9826118b6565b5060006123f46123c7565b90506000815111612414576040518060200160405280600081525061243f565b8061241e846127dd565b60405160200161242f92919061364b565b6040516020818303038152906040525b915050919050565b600081600001541161248e576040517f08c379a000000000000000000000000000000000000000000000000000000000815260040161248590613c5d565b60405180910390fd5b60018160000160008282546124a391906134b4565b9250508190555050565b60007f01ffc9a7000000000000000000000000000000000000000000000000000000007bffffffffffffffffffffffffffffffffffffffffffffffffffffffff1916827bffffffffffffffffffffffffffffffffffffffffffffffffffffffff1916149050919050565b60006002600083815260200190815260200160002060009054906101000a900473ffffffffffffffffffffffffffffffffffffffff169050919050565b808061258d5750600073ffffffffffffffffffffffffffffffffffffffff168273ffffffffffffffffffffffffffffffffffffffff1614155b156126c157600061259d846118b6565b9050600073ffffffffffffffffffffffffffffffffffffffff168373ffffffffffffffffffffffffffffffffffffffff161415801561260857508273ffffffffffffffffffffffffffffffffffffffff168173ffffffffffffffffffffffffffffffffffffffff1614155b801561261b57506126198184611740565b155b1561265d57826040517fa9fbf51f0000000000000000000000000000000000000000000000000000000081526004016126549190612d41565b60405180910390fd5b81156126bf57838573ffffffffffffffffffffffffffffffffffffffff168273ffffffffffffffffffffffffffffffffffffffff167f8c5be1e5ebec7d5bd14f71427d1e84f3dd0314c0f7b2291e5b200ac8c7c3b92560405160405180910390a45b505b836004600085815260200190815260200160002060006101000a81548173ffffffffffffffffffffffffffffffffffffffff021916908373ffffffffffffffffffffffffffffffffffffffff16021790555050505050565b6127248383836128ab565b6127d857600073ffffffffffffffffffffffffffffffffffffffff168373ffffffffffffffffffffffffffffffffffffffff160361279957806040517f7e2732890000000000000000000000000000000000000000000000000000000081526004016127909190612dd7565b60405180910390fd5b81816040517f177e802f0000000000000000000000000000000000000000000000000000000081526004016127cf9291906135e6565b60405180910390fd5b505050565b6060600060016127ec8461296c565b01905060008167ffffffffffffffff81111561280b5761280a612ff4565b5b6040519080825280601f01601f19166020018201604052801561283d5781602001600182028036833780820191505090505b509050600082602001820190505b6001156128a0578080600190039150507f3031323334353637383961626364656600000000000000000000000000000000600a86061a8153600a858161289457612893613c7d565b5b0494506000850361284b575b819350505050919050565b60008073ffffffffffffffffffffffffffffffffffffffff168373ffffffffffffffffffffffffffffffffffffffff161415801561296357508273ffffffffffffffffffffffffffffffffffffffff168473ffffffffffffffffffffffffffffffffffffffff16148061292457506129238484611740565b5b8061296257508273ffffffffffffffffffffffffffffffffffffffff1661294a8361193e565b73ffffffffffffffffffffffffffffffffffffffff16145b5b90509392505050565b600080600090507a184f03e93ff9f4daa797ed6e38ed64bf6a1f01000000000000000083106129ca577a184f03e93ff9f4daa797ed6e38ed64bf6a1f01000000000000000083816129c0576129bf613c7d565b5b0492506040810190505b6d04ee2d6d415b85acef81000000008310612a07576d04ee2d6d415b85acef810000000083816129fd576129fc613c7d565b5b0492506020810190505b662386f26fc100008310612a3657662386f26fc100008381612a2c57612a2b613c7d565b5b0492506010810190505b6305f5e1008310612a5f576305f5e1008381612a5557612a54613c7d565b5b0492506008810190505b6127108310612a84576127108381612a7a57612a79613c7d565b5b0492506004810190505b60648310612aa75760648381612a9d57612a9c613c7d565b5b0492506002810190505b600a8310612ab6576001810190505b80915050919050565b6040518060a0016040528060008152602001600073ffffffffffffffffffffffffffffffffffffffff168152602001600073ffffffffffffffffffffffffffffffffffffffff168152602001600081526020016000151581525090565b6000604051905090565b600080fd5b600080fd5b60007fffffffff0000000000000000000000000000000000000000000000000000000082169050919050565b612b6581612b30565b8114612b7057600080fd5b50565b600081359050612b8281612b5c565b92915050565b600060208284031215612b9e57612b9d612b26565b5b6000612bac84828501612b73565b91505092915050565b60008115159050919050565b612bca81612bb5565b82525050565b6000602082019050612be56000830184612bc1565b92915050565b600081519050919050565b600082825260208201905092915050565b60005b83811015612c25578082015181840152602081019050612c0a565b60008484015250505050565b6000601f19601f8301169050919050565b6000612c4d82612beb565b612c578185612bf6565b9350612c67818560208601612c07565b612c7081612c31565b840191505092915050565b60006020820190508181036000830152612c958184612c42565b905092915050565b6000819050919050565b612cb081612c9d565b8114612cbb57600080fd5b50565b600081359050612ccd81612ca7565b92915050565b600060208284031215612ce957612ce8612b26565b5b6000612cf784828501612cbe565b91505092915050565b600073ffffffffffffffffffffffffffffffffffffffff82169050919050565b6000612d2b82612d00565b9050919050565b612d3b81612d20565b82525050565b6000602082019050612d566000830184612d32565b92915050565b612d6581612d20565b8114612d7057600080fd5b50565b600081359050612d8281612d5c565b92915050565b60008060408385031215612d9f57612d9e612b26565b5b6000612dad85828601612d73565b9250506020612dbe85828601612cbe565b9150509250929050565b612dd181612c9d565b82525050565b6000602082019050612dec6000830184612dc8565b92915050565b600080600060608486031215612e0b57612e0a612b26565b5b6000612e1986828701612d73565b9350506020612e2a86828701612d73565b9250506040612e3b86828701612cbe565b9150509250925092565b600081519050919050565b600082825260208201905092915050565b6000819050602082019050919050565b612e7a81612c9d565b82525050565b6000612e8b82612d00565b9050919050565b612e9b81612e80565b82525050565b612eaa81612bb5565b82525050565b60a082016000820151612ec66000850182612e71565b506020820151612ed96020850182612e92565b506040820151612eec6040850182612e92565b506060820151612eff6060850182612e71565b506080820151612f126080850182612ea1565b50505050565b6000612f248383612eb0565b60a08301905092915050565b6000602082019050919050565b6000612f4882612e45565b612f528185612e50565b9350612f5d83612e61565b8060005b83811015612f8e578151612f758882612f18565b9750612f8083612f30565b925050600181019050612f61565b5085935050505092915050565b60006020820190508181036000830152612fb58184612f3d565b905092915050565b600060208284031215612fd357612fd2612b26565b5b6000612fe184828501612d73565b91505092915050565b600080fd5b600080fd5b7f4e487b7100000000000000000000000000000000000000000000000000000000600052604160045260246000fd5b61302c82612c31565b810181811067ffffffffffffffff8211171561304b5761304a612ff4565b5b80604052505050565b600061305e612b1c565b905061306a8282613023565b919050565b600067ffffffffffffffff82111561308a57613089612ff4565b5b61309382612c31565b9050602081019050919050565b82818337600083830152505050565b60006130c26130bd8461306f565b613054565b9050828152602081018484840111156130de576130dd612fef565b5b6130e98482856130a0565b509392505050565b600082601f83011261310657613105612fea565b5b81356131168482602086016130af565b91505092915050565b6000806040838503121561313657613135612b26565b5b600083013567ffffffffffffffff81111561315457613153612b2b565b5b613160858286016130f1565b925050602061317185828601612cbe565b9150509250929050565b61318481612bb5565b811461318f57600080fd5b50565b6000813590506131a18161317b565b92915050565b600080604083850312156131be576131bd612b26565b5b60006131cc85828601612d73565b92505060206131dd85828601613192565b9150509250929050565b600067ffffffffffffffff82111561320257613201612ff4565b5b61320b82612c31565b9050602081019050919050565b600061322b613226846131e7565b613054565b90508281526020810184848401111561324757613246612fef565b5b6132528482856130a0565b509392505050565b600082601f83011261326f5761326e612fea565b5b813561327f848260208601613218565b91505092915050565b600080600080608085870312156132a2576132a1612b26565b5b60006132b087828801612d73565b94505060206132c187828801612d73565b93505060406132d287828801612cbe565b925050606085013567ffffffffffffffff8111156132f3576132f2612b2b565b5b6132ff8782880161325a565b91505092959194509250565b6000806040838503121561332257613321612b26565b5b600061333085828601612cbe565b925050602061334185828601612cbe565b9150509250929050565b6000806040838503121561336257613361612b26565b5b600061337085828601612d73565b925050602061338185828601612d73565b9150509250929050565b7f4e487b7100000000000000000000000000000000000000000000000000000000600052602260045260246000fd5b600060028204905060018216806133d257607f821691505b6020821081036133e5576133e461338b565b5b50919050565b60006060820190506134006000830186612d32565b61340d6020830185612dc8565b61341a6040830184612d32565b949350505050565b7f4e487b7100000000000000000000000000000000000000000000000000000000600052601160045260246000fd5b600061345c82612c9d565b915061346783612c9d565b925082820190508082111561347f5761347e613422565b5b92915050565b7f4e487b7100000000000000000000000000000000000000000000000000000000600052603260045260246000fd5b60006134bf82612c9d565b91506134ca83612c9d565b92508282039050818111156134e2576134e1613422565b5b92915050565b7f4f6e6c79206f6e77657220686173206173736365737320746f20746869730000600082015250565b600061351e601e83612bf6565b9150613529826134e8565b602082019050919050565b6000602082019050818103600083015261354d81613511565b9050919050565b7f706c6561736520656e737572652069742069732061736b696e6720707269636560008201527f20746f20636f6d706c6520746865206f72646572000000000000000000000000602082015250565b60006135b0603483612bf6565b91506135bb82613554565b604082019050919050565b600060208201905081810360008301526135df816135a3565b9050919050565b60006040820190506135fb6000830185612d32565b6136086020830184612dc8565b9392505050565b600081905092915050565b600061362582612beb565b61362f818561360f565b935061363f818560208601612c07565b80840191505092915050565b6000613657828561361a565b9150613663828461361a565b91508190509392505050565b7f4f6e6c79206f776e6572206861766520746868652072696768747320746f207460008201527f6869730000000000000000000000000000000000000000000000000000000000602082015250565b60006136cb602383612bf6565b91506136d68261366f565b604082019050919050565b600060208201905081810360008301526136fa816136be565b9050919050565b7f4d757374206265206d6f7265207468616e204c697374696e6720507269636500600082015250565b6000613737601f83612bf6565b915061374282613701565b602082019050919050565b600060208201905081810360008301526137668161372a565b9050919050565b60008190508160005260206000209050919050565b60006020601f8301049050919050565b600082821b905092915050565b6000600883026137cf7fffffffffffffffffffffffffffffffffffffffffffffffffffffffffffffffff82613792565b6137d98683613792565b95508019841693508086168417925050509392505050565b6000819050919050565b600061381661381161380c84612c9d565b6137f1565b612c9d565b9050919050565b6000819050919050565b613830836137fb565b61384461383c8261381d565b84845461379f565b825550505050565b600090565b61385961384c565b613864818484613827565b505050565b5b818110156138885761387d600082613851565b60018101905061386a565b5050565b601f8211156138cd5761389e8161376d565b6138a784613782565b810160208510156138b6578190505b6138ca6138c285613782565b830182613869565b50505b505050565b600082821c905092915050565b60006138f0600019846008026138d2565b1980831691505092915050565b600061390983836138df565b9150826002028217905092915050565b61392282612beb565b67ffffffffffffffff81111561393b5761393a612ff4565b5b61394582546133ba565b61395082828561388c565b600060209050601f8311600181146139835760008415613971578287015190505b61397b85826138fd565b8655506139e3565b601f1984166139918661376d565b60005b828110156139b957848901518255600182019150602085019450602081019050613994565b868310156139d657848901516139d2601f8916826138df565b8355505b6001600288020188555050505b505050505050565b7f5072696365206d7573742062652061746c656173742031000000000000000000600082015250565b6000613a21601783612bf6565b9150613a2c826139eb565b602082019050919050565b60006020820190508181036000830152613a5081613a14565b9050919050565b7f50726963652061746c656173742061626f7665206c697374696e67207072696360008201527f6500000000000000000000000000000000000000000000000000000000000000602082015250565b6000613ab3602183612bf6565b9150613abe82613a57565b604082019050919050565b60006020820190508181036000830152613ae281613aa6565b9050919050565b6000608082019050613afe6000830187612d32565b613b0b6020830186612d32565b613b186040830185612dc8565b613b256060830184612bc1565b95945050505050565b600081519050919050565b600082825260208201905092915050565b6000613b5582613b2e565b613b5f8185613b39565b9350613b6f818560208601612c07565b613b7881612c31565b840191505092915050565b6000608082019050613b986000830187612d32565b613ba56020830186612d32565b613bb26040830185612dc8565b8181036060830152613bc48184613b4a565b905095945050505050565b600081519050613bde81612b5c565b92915050565b600060208284031215613bfa57613bf9612b26565b5b6000613c0884828501613bcf565b91505092915050565b7f436f756e7465723a2064656372656d656e7420756e646572666c6f7700000000600082015250565b6000613c47601c83612bf6565b9150613c5282613c11565b602082019050919050565b60006020820190508181036000830152613c7681613c3a565b9050919050565b7f4e487b7100000000000000000000000000000000000000000000000000000000600052601260045260246000fdfea2646970667358221220dc882b71e73226ec482de9c0dc9a60ad3c3a9f52a41e0c743c4bcdfd105c96e464736f6c63430008180033",
  "linkReferences": {},
  "deployedLinkReferences": {}
}